{
  "contractName": "WhistleBlower",
  "abi": [
    {
      "inputs": [],
      "stateMutability": "nonpayable",
      "type": "constructor"
    },
    {
      "anonymous": false,
      "inputs": [
        {
          "indexed": true,
          "internalType": "address",
          "name": "previousOwner",
          "type": "address"
        },
        {
          "indexed": true,
          "internalType": "address",
          "name": "newOwner",
          "type": "address"
        }
      ],
      "name": "OwnershipTransferred",
      "type": "event"
    },
    {
      "inputs": [
        {
          "internalType": "uint256",
          "name": "",
          "type": "uint256"
        }
      ],
      "name": "caseMapping",
      "outputs": [
        {
          "internalType": "string",
          "name": "title",
          "type": "string"
        },
        {
          "internalType": "string",
          "name": "description",
          "type": "string"
        },
        {
          "internalType": "string",
          "name": "proof",
          "type": "string"
        },
        {
          "internalType": "uint256",
          "name": "validityCount",
          "type": "uint256"
        },
        {
          "internalType": "string",
          "name": "url",
          "type": "string"
        },
        {
          "internalType": "address",
          "name": "blowingOrg",
          "type": "address"
        },
        {
          "internalType": "uint256",
          "name": "id",
          "type": "uint256"
        }
      ],
      "stateMutability": "view",
      "type": "function",
      "constant": true
    },
    {
      "inputs": [
        {
          "internalType": "address",
          "name": "",
          "type": "address"
        }
      ],
      "name": "orgCaseCount",
      "outputs": [
        {
          "internalType": "uint256",
          "name": "",
          "type": "uint256"
        }
      ],
      "stateMutability": "view",
      "type": "function",
      "constant": true
    },
    {
      "inputs": [
        {
          "internalType": "uint256",
          "name": "",
          "type": "uint256"
        }
      ],
      "name": "organisationMapping",
      "outputs": [
        {
          "internalType": "string",
          "name": "orgName",
          "type": "string"
        },
        {
          "internalType": "string",
          "name": "orgType",
          "type": "string"
        },
        {
          "internalType": "address",
          "name": "orgAddress",
          "type": "address"
        },
        {
          "internalType": "string",
          "name": "url",
          "type": "string"
        },
        {
          "internalType": "uint256",
          "name": "id",
          "type": "uint256"
        }
      ],
      "stateMutability": "view",
      "type": "function",
      "constant": true
    },
    {
      "inputs": [],
      "name": "owner",
      "outputs": [
        {
          "internalType": "address",
          "name": "",
          "type": "address"
        }
      ],
      "stateMutability": "view",
      "type": "function",
      "constant": true
    },
    {
      "inputs": [],
      "name": "renounceOwnership",
      "outputs": [],
      "stateMutability": "nonpayable",
      "type": "function"
    },
    {
      "inputs": [
        {
          "internalType": "address",
          "name": "newOwner",
          "type": "address"
        }
      ],
      "name": "transferOwnership",
      "outputs": [],
      "stateMutability": "nonpayable",
      "type": "function"
    },
    {
      "inputs": [
        {
          "internalType": "address",
          "name": "_address",
          "type": "address"
        }
      ],
      "name": "isAnOrganisationLogin",
      "outputs": [
        {
          "internalType": "bool",
          "name": "",
          "type": "bool"
        }
      ],
      "stateMutability": "view",
      "type": "function",
      "constant": true
    },
    {
      "inputs": [
        {
          "internalType": "string",
          "name": "_orgName",
          "type": "string"
        },
        {
          "internalType": "string",
          "name": "_orgType",
          "type": "string"
        },
        {
          "internalType": "address",
          "name": "_orgAddress",
          "type": "address"
        },
        {
          "internalType": "string",
          "name": "_url",
          "type": "string"
        },
        {
          "internalType": "uint256",
          "name": "_id",
          "type": "uint256"
        }
      ],
      "name": "registerOrganisation",
      "outputs": [],
      "stateMutability": "nonpayable",
      "type": "function"
    },
    {
      "inputs": [
        {
          "internalType": "string",
          "name": "_title",
          "type": "string"
        },
        {
          "internalType": "string",
          "name": "_description",
          "type": "string"
        },
        {
          "internalType": "string",
          "name": "_proof",
          "type": "string"
        },
        {
          "internalType": "address",
          "name": "_blowingOrg",
          "type": "address"
        },
        {
          "internalType": "string",
          "name": "_url",
          "type": "string"
        },
        {
          "internalType": "uint256",
          "name": "_id",
          "type": "uint256"
        }
      ],
      "name": "createCase",
      "outputs": [],
      "stateMutability": "nonpayable",
      "type": "function"
    },
    {
      "inputs": [
        {
          "internalType": "uint256",
          "name": "_id",
          "type": "uint256"
        }
      ],
      "name": "approveValidity",
      "outputs": [],
      "stateMutability": "nonpayable",
      "type": "function"
    }
  ],
  "bytecode": "0x608060405234801561001057600080fd5b5060006100216100ca60201b60201c565b9050806000806101000a81548173ffffffffffffffffffffffffffffffffffffffff021916908373ffffffffffffffffffffffffffffffffffffffff1602179055508073ffffffffffffffffffffffffffffffffffffffff16600073ffffffffffffffffffffffffffffffffffffffff167f8be0079c531659141344cd1fd0a4f28419497f9722a3daafe3b4186f6b6457e060405160405180910390a3506000339050506100d2565b600033905090565b611ac2806100e16000396000f3fe608060405234801561001057600080fd5b506004361061009e5760003560e01c8063d19609a611610066578063d19609a61461051b578063d4fac92114610549578063df880031146107f3578063e71cf4bf14610a1f578063f2fde38b14610a7b5761009e565b806318462531146100a357806359b5b90a1461025c578063715018a6146102b45780638da5cb5b146102be578063a9e4882314610308575b600080fd5b6100cf600480360360208110156100b957600080fd5b8101908080359060200190929190505050610abf565b6040518080602001806020018673ffffffffffffffffffffffffffffffffffffffff1673ffffffffffffffffffffffffffffffffffffffff16815260200180602001858152602001848103845289818151815260200191508051906020019080838360005b8381101561014f578082015181840152602081019050610134565b50505050905090810190601f16801561017c5780820380516001836020036101000a031916815260200191505b50848103835288818151815260200191508051906020019080838360005b838110156101b557808201518184015260208101905061019a565b50505050905090810190601f1680156101e25780820380516001836020036101000a031916815260200191505b50848103825286818151815260200191508051906020019080838360005b8381101561021b578082015181840152602081019050610200565b50505050905090810190601f1680156102485780820380516001836020036101000a031916815260200191505b509850505050505050505060405180910390f35b61029e6004803603602081101561027257600080fd5b81019080803573ffffffffffffffffffffffffffffffffffffffff169060200190929190505050610cdd565b6040518082815260200191505060405180910390f35b6102bc610cf5565b005b6102c6610e7d565b604051808273ffffffffffffffffffffffffffffffffffffffff1673ffffffffffffffffffffffffffffffffffffffff16815260200191505060405180910390f35b610519600480360360a081101561031e57600080fd5b810190808035906020019064010000000081111561033b57600080fd5b82018360208201111561034d57600080fd5b8035906020019184600183028401116401000000008311171561036f57600080fd5b91908080601f016020809104026020016040519081016040528093929190818152602001838380828437600081840152601f19601f820116905080830192505050505050509192919290803590602001906401000000008111156103d257600080fd5b8201836020820111156103e457600080fd5b8035906020019184600183028401116401000000008311171561040657600080fd5b91908080601f016020809104026020016040519081016040528093929190818152602001838380828437600081840152601f19601f820116905080830192505050505050509192919290803573ffffffffffffffffffffffffffffffffffffffff1690602001909291908035906020019064010000000081111561048957600080fd5b82018360208201111561049b57600080fd5b803590602001918460018302840111640100000000831117156104bd57600080fd5b91908080601f016020809104026020016040519081016040528093929190818152602001838380828437600081840152601f19601f82011690508083019250505050505050919291929080359060200190929190505050610ea6565b005b6105476004803603602081101561053157600080fd5b81019080803590602001909291905050506110d1565b005b6107f1600480360360c081101561055f57600080fd5b810190808035906020019064010000000081111561057c57600080fd5b82018360208201111561058e57600080fd5b803590602001918460018302840111640100000000831117156105b057600080fd5b91908080601f016020809104026020016040519081016040528093929190818152602001838380828437600081840152601f19601f8201169050808301925050505050505091929192908035906020019064010000000081111561061357600080fd5b82018360208201111561062557600080fd5b8035906020019184600183028401116401000000008311171561064757600080fd5b91908080601f016020809104026020016040519081016040528093929190818152602001838380828437600081840152601f19601f820116905080830192505050505050509192919290803590602001906401000000008111156106aa57600080fd5b8201836020820111156106bc57600080fd5b803590602001918460018302840111640100000000831117156106de57600080fd5b91908080601f016020809104026020016040519081016040528093929190818152602001838380828437600081840152601f19601f820116905080830192505050505050509192919290803573ffffffffffffffffffffffffffffffffffffffff1690602001909291908035906020019064010000000081111561076157600080fd5b82018360208201111561077357600080fd5b8035906020019184600183028401116401000000008311171561079557600080fd5b91908080601f016020809104026020016040519081016040528093929190818152602001838380828437600081840152601f19601f82011690508083019250505050505050919291929080359060200190929190505050611223565b005b61081f6004803603602081101561080957600080fd5b8101908080359060200190929190505050611467565b60405180806020018060200180602001888152602001806020018773ffffffffffffffffffffffffffffffffffffffff1673ffffffffffffffffffffffffffffffffffffffff16815260200186815260200185810385528c818151815260200191508051906020019080838360005b838110156108a957808201518184015260208101905061088e565b50505050905090810190601f1680156108d65780820380516001836020036101000a031916815260200191505b5085810384528b818151815260200191508051906020019080838360005b8381101561090f5780820151818401526020810190506108f4565b50505050905090810190601f16801561093c5780820380516001836020036101000a031916815260200191505b5085810383528a818151815260200191508051906020019080838360005b8381101561097557808201518184015260208101905061095a565b50505050905090810190601f1680156109a25780820380516001836020036101000a031916815260200191505b50858103825288818151815260200191508051906020019080838360005b838110156109db5780820151818401526020810190506109c0565b50505050905090810190601f168015610a085780820380516001836020036101000a031916815260200191505b509b50505050505050505050505060405180910390f35b610a6160048036036020811015610a3557600080fd5b81019080803573ffffffffffffffffffffffffffffffffffffffff169060200190929190505050611729565b604051808215151515815260200191505060405180910390f35b610abd60048036036020811015610a9157600080fd5b81019080803573ffffffffffffffffffffffffffffffffffffffff16906020019092919050505061177f565b005b6003602052806000526040600020600091509050806000018054600181600116156101000203166002900480601f016020809104026020016040519081016040528092919081815260200182805460018160011615610100020316600290048015610b6b5780601f10610b4057610100808354040283529160200191610b6b565b820191906000526020600020905b815481529060010190602001808311610b4e57829003601f168201915b505050505090806001018054600181600116156101000203166002900480601f016020809104026020016040519081016040528092919081815260200182805460018160011615610100020316600290048015610c095780601f10610bde57610100808354040283529160200191610c09565b820191906000526020600020905b815481529060010190602001808311610bec57829003601f168201915b5050505050908060020160009054906101000a900473ffffffffffffffffffffffffffffffffffffffff1690806003018054600181600116156101000203166002900480601f016020809104026020016040519081016040528092919081815260200182805460018160011615610100020316600290048015610ccd5780601f10610ca257610100808354040283529160200191610ccd565b820191906000526020600020905b815481529060010190602001808311610cb057829003601f168201915b5050505050908060040154905085565b60066020528060005260406000206000915090505481565b610cfd61198c565b73ffffffffffffffffffffffffffffffffffffffff166000809054906101000a900473ffffffffffffffffffffffffffffffffffffffff1673ffffffffffffffffffffffffffffffffffffffff1614610dbe576040517f08c379a00000000000000000000000000000000000000000000000000000000081526004018080602001828103825260208152602001807f4f776e61626c653a2063616c6c6572206973206e6f7420746865206f776e657281525060200191505060405180910390fd5b600073ffffffffffffffffffffffffffffffffffffffff166000809054906101000a900473ffffffffffffffffffffffffffffffffffffffff1673ffffffffffffffffffffffffffffffffffffffff167f8be0079c531659141344cd1fd0a4f28419497f9722a3daafe3b4186f6b6457e060405160405180910390a360008060006101000a81548173ffffffffffffffffffffffffffffffffffffffff021916908373ffffffffffffffffffffffffffffffffffffffff160217905550565b60008060009054906101000a900473ffffffffffffffffffffffffffffffffffffffff16905090565b610eae61198c565b73ffffffffffffffffffffffffffffffffffffffff166000809054906101000a900473ffffffffffffffffffffffffffffffffffffffff1673ffffffffffffffffffffffffffffffffffffffff1614610f6f576040517f08c379a00000000000000000000000000000000000000000000000000000000081526004018080602001828103825260208152602001807f4f776e61626c653a2063616c6c6572206973206e6f7420746865206f776e657281525060200191505060405180910390fd5b80600360008381526020019081526020016000206004018190555084600360008381526020019081526020016000206000019080519060200190610fb4929190611994565b5083600360008381526020019081526020016000206001019080519060200190610fdf929190611994565b50826003600083815260200190815260200160002060020160006101000a81548173ffffffffffffffffffffffffffffffffffffffff021916908373ffffffffffffffffffffffffffffffffffffffff1602179055508160036000838152602001908152602001600020600301908051906020019061105f929190611994565b506001600081548092919060010191905055506001600460008573ffffffffffffffffffffffffffffffffffffffff1673ffffffffffffffffffffffffffffffffffffffff16815260200190815260200160002060006101000a81548160ff0219169083151502179055505050505050565b600015156005600083815260200190815260200160002060040160003373ffffffffffffffffffffffffffffffffffffffff1673ffffffffffffffffffffffffffffffffffffffff16815260200190815260200160002060009054906101000a900460ff1615151461118e576040517f08c379a000000000000000000000000000000000000000000000000000000000815260040180806020018281038252602d815260200180611a60602d913960400191505060405180910390fd5b600560008281526020019081526020016000206003016000815480929190600101919050555060016005600083815260200190815260200160002060040160003373ffffffffffffffffffffffffffffffffffffffff1673ffffffffffffffffffffffffffffffffffffffff16815260200190815260200160002060006101000a81548160ff02191690831515021790555050565b600460003373ffffffffffffffffffffffffffffffffffffffff1673ffffffffffffffffffffffffffffffffffffffff16815260200190815260200160002060009054906101000a900460ff166112e2576040517f08c379a000000000000000000000000000000000000000000000000000000000815260040180806020018281038252601c8152602001807f596f7520617265206e6f7420616e206f7267616e69736174696f6e210000000081525060200191505060405180910390fd5b80600560008381526020019081526020016000206007018190555085600560008381526020019081526020016000206000019080519060200190611327929190611994565b5084600560008381526020019081526020016000206001019080519060200190611352929190611994565b508360056000838152602001908152602001600020600201908051906020019061137d929190611994565b50336005600083815260200190815260200160002060060160006101000a81548173ffffffffffffffffffffffffffffffffffffffff021916908373ffffffffffffffffffffffffffffffffffffffff160217905550816005600083815260200190815260200160002060050190805190602001906113fd929190611994565b50600660008473ffffffffffffffffffffffffffffffffffffffff1673ffffffffffffffffffffffffffffffffffffffff16815260200190815260200160002060008154809291906001019190505550600260008154809291906001019190505550505050505050565b6005602052806000526040600020600091509050806000018054600181600116156101000203166002900480601f0160208091040260200160405190810160405280929190818152602001828054600181600116156101000203166002900480156115135780601f106114e857610100808354040283529160200191611513565b820191906000526020600020905b8154815290600101906020018083116114f657829003601f168201915b505050505090806001018054600181600116156101000203166002900480601f0160208091040260200160405190810160405280929190818152602001828054600181600116156101000203166002900480156115b15780601f10611586576101008083540402835291602001916115b1565b820191906000526020600020905b81548152906001019060200180831161159457829003601f168201915b505050505090806002018054600181600116156101000203166002900480601f01602080910402602001604051908101604052809291908181526020018280546001816001161561010002031660029004801561164f5780601f106116245761010080835404028352916020019161164f565b820191906000526020600020905b81548152906001019060200180831161163257829003601f168201915b505050505090806003015490806005018054600181600116156101000203166002900480601f0160208091040260200160405190810160405280929190818152602001828054600181600116156101000203166002900480156116f35780601f106116c8576101008083540402835291602001916116f3565b820191906000526020600020905b8154815290600101906020018083116116d657829003601f168201915b5050505050908060060160009054906101000a900473ffffffffffffffffffffffffffffffffffffffff16908060070154905087565b6000600460008373ffffffffffffffffffffffffffffffffffffffff1673ffffffffffffffffffffffffffffffffffffffff16815260200190815260200160002060009054906101000a900460ff169050919050565b61178761198c565b73ffffffffffffffffffffffffffffffffffffffff166000809054906101000a900473ffffffffffffffffffffffffffffffffffffffff1673ffffffffffffffffffffffffffffffffffffffff1614611848576040517f08c379a00000000000000000000000000000000000000000000000000000000081526004018080602001828103825260208152602001807f4f776e61626c653a2063616c6c6572206973206e6f7420746865206f776e657281525060200191505060405180910390fd5b600073ffffffffffffffffffffffffffffffffffffffff168173ffffffffffffffffffffffffffffffffffffffff1614156118ce576040517f08c379a0000000000000000000000000000000000000000000000000000000008152600401808060200182810382526026815260200180611a3a6026913960400191505060405180910390fd5b8073ffffffffffffffffffffffffffffffffffffffff166000809054906101000a900473ffffffffffffffffffffffffffffffffffffffff1673ffffffffffffffffffffffffffffffffffffffff167f8be0079c531659141344cd1fd0a4f28419497f9722a3daafe3b4186f6b6457e060405160405180910390a3806000806101000a81548173ffffffffffffffffffffffffffffffffffffffff021916908373ffffffffffffffffffffffffffffffffffffffff16021790555050565b600033905090565b828054600181600116156101000203166002900490600052602060002090601f016020900481019282601f106119d557805160ff1916838001178555611a03565b82800160010185558215611a03579182015b82811115611a025782518255916020019190600101906119e7565b5b509050611a109190611a14565b5090565b611a3691905b80821115611a32576000816000905550600101611a1a565b5090565b9056fe4f776e61626c653a206e6577206f776e657220697320746865207a65726f2061646472657373596f75206861766520616c726561647920617070726f766564207468697320636173652076616c696469747921a264697066735822122040c88d9345147eb47782c1444bf206012ba91167deecca560d6f88f2ef2eaa3c64736f6c63430006000033",
  "source": "// SPDX-License-Identifier: MIT\npragma solidity >=0.4.21 <0.7.0;\nimport \"../client/node_modules/@openzeppelin/contracts/access/Ownable.sol\";\n\n// import \"https://github.com/OpenZeppelin/openzeppelin-contracts/blob/master/contracts/access/Ownable.sol\";\n\ncontract WhistleBlower is Ownable {\n    constructor() public {\n        address owner;\n        owner = msg.sender;\n    }\n\n    struct organisation {\n        string orgName; //name of the organisation\n        string orgType; //NGO, Activists, Lawyers\n        address orgAddress; //to allow access to organ to WhistleBlower\n        string url; //organisation Website url\n        uint256 id; //to map in organisationMapping\n    }\n\n    struct Case {\n        string title; //title of whistleBlow\n        string description; //description of case\n        string proof; //proof of whistleBlow\n        uint256 validityCount; //verify validity\n        mapping(address => bool) restrictValidityCount;\n        string url; //link to website\n        address blowingOrg; //one who is whistleBlowing\n        uint256 id;\n    }\n\n    uint256 organisationMappingLength; //total no of organisations\n    uint256 caseMappingLength; //total no of cases on the platform\n\n    mapping(uint256 => organisation) public organisationMapping;\n    mapping(address => bool) organisationLogin;\n    mapping(uint256 => Case) public caseMapping;\n    mapping(address => uint256) public orgCaseCount; //no of cases a particular org has blown\n\n    modifier isOrganisation() {\n        require(organisationLogin[msg.sender], \"You are not an organisation!\");\n        _;\n    }\n\n    function isAnOrganisationLogin(address _address)\n        public\n        view\n        returns (bool)\n    {\n        return organisationLogin[_address];\n    }\n\n    function registerOrganisation(\n        string memory _orgName,\n        string memory _orgType,\n        address _orgAddress,\n        string memory _url,\n        uint256 _id\n    ) public onlyOwner {\n        organisationMapping[_id].id = _id;\n        organisationMapping[_id].orgName = _orgName;\n        organisationMapping[_id].orgType = _orgType;\n        organisationMapping[_id].orgAddress = _orgAddress;\n        organisationMapping[_id].url = _url;\n        organisationMappingLength++;\n        organisationLogin[_orgAddress] = true;\n    }\n\n    function createCase(\n        string memory _title,\n        string memory _description,\n        string memory _proof,\n        address _blowingOrg,\n        string memory _url,\n        uint256 _id\n    ) public isOrganisation {\n        caseMapping[_id].id = _id;\n        caseMapping[_id].title = _title;\n        caseMapping[_id].description = _description;\n        caseMapping[_id].proof = _proof;\n        caseMapping[_id].blowingOrg = msg.sender;\n        caseMapping[_id].url = _url;\n        orgCaseCount[_blowingOrg]++;\n        caseMappingLength++;\n    }\n\n    //increasing validity count by getting approvals from different accounts;\n    function approveValidity(uint256 _id) public {\n        require(\n            caseMapping[_id].restrictValidityCount[msg.sender] == false,\n            \"You have already approved this case validity!\"\n        );\n        caseMapping[_id].validityCount++;\n        caseMapping[_id].restrictValidityCount[msg.sender] = true;\n    }\n}\n",
  "sourcePath": "F:\\Workspace\\Ethereum\\whistleBlow\\contracts\\whistleBlower.sol",
  "compiler": {
    "name": "solc",
    "version": "0.6.0+commit.26b70077.Emscripten.clang"
  },
  "schemaVersion": "3.1.0",
  "updatedAt": "2020-07-30T18:40:37.958Z",
  "networkType": "ethereum",
  "devdoc": {
    "methods": {
      "owner()": {
        "details": "Returns the address of the current owner."
      },
      "renounceOwnership()": {
        "details": "Leaves the contract without owner. It will not be possible to call `onlyOwner` functions anymore. Can only be called by the current owner.     * NOTE: Renouncing ownership will leave the contract without an owner, thereby removing any functionality that is only available to the owner."
      },
      "transferOwnership(address)": {
        "details": "Transfers ownership of the contract to a new account (`newOwner`). Can only be called by the current owner."
      }
    }
  },
  "userdoc": {
    "methods": {}
  }
}